S01800005A69676265655F6C696768745F64656D6F2E7333370B
S31500000000401A00201D850200852B0000892B000068
S31500000010A70A02020002000004180FAC106AD800FA
S3150000002000000000000000000000000000000000CA
S3150000003000000000F88A0300000000000000000035
S315000000400000000000000000FFFFFFFFFFFFFFFFB2
S31500000050FFFFFFFFFFFFFFFFFFFFFFFFFFFFFFFFAA
S3150000006000E00F000000000000000000FFFFFFFF9F
S31500000070FFFFFFFF1C000000000000000000000062
S315000000800000000000000000903A0020903A002096
S31500000090401A0020EED7030088190300E010002064
S311000000A0B410002000001000000000005A
S31500000200401A00201D850200852B0000892B000066
S31500000210F98B00008D2B0000952B00001B8502003A
S315000002201B8502001B8502001B8502001B85020040
S31500000230992B00001B8502001B8502001B8502000E
S31500000240D1470000C9E80200912E00000C2C0000E6
S3150000025099E1020021E90200D5E80200EDE802007A
S31500000260CDE80200D13C0000BD3D0000655F000006
S31500000270EDB300000C2C00000C2C0000D115000082
S315000002800C2C00000C2C0000D93D00000C2C0000AA
S315000002900C2C00000C2C00000C2C00000C2C000078
S315000002A00C2C00000C2C00000C2C00000C2C000068
S315000002B025E90200D1E802006545000061E9020077
S315000002C00C2C000011D402000C2C00000C2C000099
S315000002D00C2C00000C2C00000C2C00000C2C000038
S315000002E00C2C00000C2C00000C2C00000C2C000028
S315000002F00C2C00000C2C00000C2C00000C2C000018
S311000003000C2C00000C2C00001B850200D9
S3150000030CF8B500BFF8BC08BC9E467047F8B500BFF0
S3150000031CF8BC08BC9E46704710B5054C237833B91B
S3150000032C044B13B10448AFF300800123237010BDB6
S3150000033C582500200000000044D0030008B5034BEC
S3150000034C1BB103490348AFF3008008BD0000000051
S3150000035C5C25002044D00300A3F5803A704700BF0B
S3150000036C174B002B08BF134B9D46FFF7F5FF0021DB
S3150000037C8B460F461348144A121A31F0D1FA0E4B1B
S3150000038C002B00D098470D4B002B00D0984700202F
S3150000039C002104000D000D48002802D00C48AFF3D4
S315000003AC008031F061FA200029000BF0DDFA31F003
S315000003BC47FA00BF00000800000000000000000023
S315000003CC401A0020E2210020903A00200000000094
S315000003DC000000001FB5094A1388591C1180012220
S315000003ECCDE902220022CDE900324FF4A061044B84
S315000003FC09200DF007FE05B05DF804FBD431002092
S3150000040C881903001FB5094A1388591C118001224B
S3150000041CCDE902220022CDE900324FF4A061044B53
S3150000042C09200DF0EFFD05B05DF804FBD43100207A
S3150000043C881903007047704708B5C37B1BB9C37C8A
S3150000044C1BB1012B0FD0812008BD017D82898B1C2D
S3150000045C9A420BD380680EF0F5F809F0EDF80028F7
S3150000046CF1D00020F0E709F001F9F8E78020EBE77E
S3150000047C10B5437D012B04460CD10368028A5988BA
S3150000048C58790CF04BFE28B123685B88032B13D1EB
S3150000049C812010BD637D7BB92368228A59885879DF
S315000004AC0CF033FE40B123685B88092BF0D005D8DD
S315000004BC002BEDD0032B04D0C320EAE7B3F5A06FD5
S315000004CCE5E72046BDE81040FFF7B6BF70470120B0
S315000004DC70470120704701207047B5207047704760
S315000004EC002070470020704700207047002070479E
S315000004FC002070470020704700207047002070478E
S3150000050C012070470120704700207047002070477B
S3150000051C002070470020704700207047B5207047B8
S3150000052C7047002070477047704700207047842042
S3150000053C70477047704770477047704770477047F1
S3150000054C7047704770477047704770477047012077
S3150000055C70477047704770470020704708B510F019
S3150000056C91F96FF02F0008BD0120704770B50C464D
S3150000057C0C491E46031E15464FF001000A4A08BFD9
S3150000058C0A460A490EF0DEFC3246094901200EF0F5
S3150000059CD9FC2B4622460749BDE8704001200EF0D7
S315000005ACD1BC00BF8D190300429C03009A190300AD
S315000005BCC0190300D619030000207047034B1B68B3
S315000005CC1878012808BF0220704700BF9C2800201D
S315000005DC70470020704700207047002070470020AD
S315000005EC704700207047002070470020704700209D
S315000005FC7047002070477047B52070470020704741
S3150000060C002070477047704770477047002070474E
S3150000061C70477047002070477047704770477047A7
S3150000062C094A0023FF21137082F8783082F865306E
S3150000063C82F8773082F8793082F87A1082F87B303B
S3150000064C024A1360704700BFD7380020042B0020E5
S3150000065C044B184490F8663090F86500181AC0B22E
S3150000066C704700BFD7380020F8B5214C94F87B2092
S3150000067C1044C2B210462244FFF7EAFF1D4B92F813
S3150000068C65501E784FF0000C0746254460465FFA0D
S3150000069C8CF2974224D96B7811B10AB92D2B17D04D
S315000006AC782B21D0582B05D108B137220AE0013A14
S315000006BC012A16D9602B19D8402BF6D83A2B34BF01
S315000006CC302200229B1ADBB29E4205D900FB063073
S315000006DC0CF1010C0135DAE7052384F8793000209A
S315000006ECF8BD10260020F3E70028E0D05722E9E7F2
S315000006FCD73800208D2100202DE9F0470D468F6854
S3150000070C0A683A490446202003F068F86B68ABB9CE
S3150000071C3749202003F062F820200AF029FCEA6809
S3150000072C1AB13449202003F059F83349202003F03C
S3150000073C69F8BDE8F04720200AF01ABC002CEBD073
S3150000074CEB681BB12D49202003F048F8DFF8D88060
S3150000075CDFF8D890DFF8D8A0013F002617F8014F34
S3150000076C24B92549202003F04DF8D5E72B691BB198
S3150000077C4146202003F032F8752C24D0762C24D058
S3150000078C772C24D0732C24D0722C24D0712C24D00A
S3150000079C622C24D06E2C24D02A2C24D01849194B28
S315000007AC212C18BF1946202003F018F8212CD5D07F
S315000007BC2B692BB153F826201349202003F00EF891
S315000007CC0136F6B2CAE74946EDE75146EBE70F4963
S315000007DCE9E70F49E7E70F49E5E70F49E3E70F4973
S315000007ECE1E70F49DFE70F49DDE700BF6E8D030038
S315000007FC5D230300781A0300BD1A0300681A030070
S3150000080C1C1A0300651A0300721A03004E1A030021
S3150000081C051A03005A1A0300FA1903000F1A0300EB
S3150000082C5C230300191A030068A90300371A030096
S3150000083C421A0300FFF7F4BE034B93F8770093F8C4
S3150000084C7B30C01AC0B27047D73800200021FFF7A2
S3150000085C0BBF000010B50A4B93F87B20024453FAE9
S3150000086C82F292F8652013445C78A4F12D03594268
S3150000087C5941FFF7F9FE2D2C08BF404210BD00BFB1
S3150000088CD738002038B50A4D95F87B20C44302446E
S3150000089CD2B2E40F21B11046FFF7DAFE001B087046
S315000008AC45FA82F292F8650004440248204438BDA9
S315000008BCD7380020D83800202DE9F3410E460DF12B
S315000008CC070115461C46FFF7DDFF9DF80730AB42C6
S315000008DC88BF8DF807509DF8077080460CB1EC1B4D
S315000008ECE4B222460021304631F01AF83A46414627
S315000008FC301930F0FBFF384602B0BDE8F08138B550
S3150000090C08220C460123FFF7D7FF04F10803621EE9
S3150000091C043413F8011D12F8015F1D70A342117007
S3150000092CF7D138BD38B5014605460120FFF7E4FE80
S3150000093CD5E901436CB91C46084D236863B12946B9
S3150000094C202002F04BFF21460020FFF7D5FE143481
S3150000095CF3E71B786E2BEFD038BD00BF68A90300F8
S3150000096C08B50449202002F039FFBDE808402020D4
S3150000097C0AF0FEBA7E1A030010B5FFF7F1FF054C1C
S3150000098C236803B910BD21460020FFF7B5FE1434C9
S3150000099CF6E700BF746A03001E4B1F4953F820206C
S315000009AC2DE9F0471D4E202002F018FF33681BB9C5
S315000009BCBDE8F047FFF7E0BFFFF7D2FF184DDFF8B1
S315000009CC6880002495F87B30E7B2013B9F4204DB3C
S315000009DC3068BDE8F047FFF7A5BF45FA84F34FF042
S315000009EC000A93F86590A9443846FFF731FE5FFA82
S315000009FC8AF3834205D30B49202002F0EFFE013423
S31500000A0CE0E74B4441465A78202002F0E7FE0AF113
S31500000A1C010AE9E7501D0020BE1A0300042B002032
S31500000A2CD738002069A90300B0AD03002DE9F84FB3
S31500000A3C824C94F87730002B00F09680804B1B7814
S31500000A4C13F0010F04F101081BD07E4E0025E8B20D
S31500000A5CFFF7FEFD44FA85F3024693F86510202055
S31500000A6C41440AF080FA3146202002F0B7FE0135E7
S31500000A7C94F87720EBB29A42E9D87349202002F019
S31500000A8CADFE94F877A0714A002644FA86F33046F8
S31500000A9C93F86590FFF7DCFD4FF0000CC1446546FA
S31500000AAC1768002F50D0013FCE4618E023B9002D11
S31500000ABC47D115461432F3E71EF8011BA1F1410B81
S31500000ACCBBF1190F98BF2031A3F1410B98BFC9B2E6
S31500000ADCBBF1190F9CBF2033DBB28B42EAD1AEEBD4
S31500000AEC0901814217F8013FE0D1002BDFD11546F1
S31500000AFC574B1D6094F87B30013384F87B30D5E975
S31500000B0C01320136F6B2A3B312786E2A30D03F2AE0
S31500000B1C23D04FF00009C8464FF0050B072394F875
S31500000B2C7710AA68B14212F8087029D8AFB14244BE
S31500000B3C53782A2B11D0212F1CBF032384F879302C
S31500000B4C0BE04FF0010CB5E7BCF1000F01D1002D05
S31500000B5CCED1022384F87930002594F87900002848
S31500000B6C68D168680DF078FABDE8F84FFFF758BD04
S31500000B7C1A46B24589D8032384F879301546ECE732
S31500000B8C622F30D006D8002F52D0212F3AD084F8BD
S31500000B9C793037E0732F15D8702FF8D9732F1FD0F3
S31500000BAC722F47F6FF7A18BF4FF0FF3A01214846DD
S31500000BBCFFF75AFD50454FF0070323D9042284F85A
S31500000BCC79201FE0A7F17502022AE0D8752F04D010
S31500000BDC762FE3D14FF6FF7AE8E74FF0FF0AE5E709
S31500000BEC4FF07F0AE2E794F87B204A4454FA82F2EB
S31500000BFC92F8652022445278222A03D07B2A01D00F
S31500000C0C84F879B0AA68424452782A2A94F8792052
S31500000C1C1CBF08F101085FFA88F8002A9DD1212F24
S31500000C2C1FBF013609F10109F6B25FFA89F976E7B9
S31500000C3C0322C4E7FFF7B0FE96E700BFD7380020C3
S31500000C4C9639002069A90300BB1A0300746A0300D5
S31500000C5C042B00202DE9F3415E4C5F4F06460D46F2
S31500000C6C4FF0000866B90DF1070128460AF074F931
S31500000C7C78B1262800F0AA80012384F879304BE05D
S31500000C8C002D00F0A38016F8013B8DF80730013DCE
S31500000C9CEDB23A789DF807303B700D2A01D10A2B3C
S31500000CACE0D00D2B0CD0A3F10A025142514122780F
S31500000CBC8846042AD6D8DFE802F0051D263C31000A
S31500000CCC0121F4E721B1FFF7B1FE4FF00108C9E7A6
S31500000CDC202B64D0222B07D10223237094F8782082
S31500000CEC642A5ED10623C8E77B2B01D10323F4E7E4
S31500000CFC0123F2E709B9202BF0D194F87730112BA8
S31500000D0C40D10323B9E7222BF7D00029E6D00523DF
S31500000D1C84F879304FF0010804232370B8F1000FE2
S31500000D2CA0D094F8790008B1FFF736FEFFF778FCEF
S31500000D3C98E77D2B94F87A0003D1FF28DDD00523A4
S31500000D4C9BE7602B13D8402B13D83A2B34BF302299
S31500000D5C00229A1AD2B20F2A10D8FF280BD002EB17
S31500000D6C0012FF238DF8072084F87A30B6E7572255
S31500000D7CEFE73722EDE784F87A2073E7202B3FF470
S31500000D8C71AFDCE70133DBB284F87730234494F897
S31500000D9C782083F8652000232370002993D1884698
S31500000DAC60E72378012B09D19DF80730A3F14101A7
S31500000DBC19299CBF2033DBB28DF80730A3189DF898
S31500000DCC07105970013284F878204BE7404602B080
S31500000DDCBDE8F081D73800200C3A002049BA89B218
S31500000DEC4840C0F303134340180380B258405B01DC
S31500000DFC03F4FF535840704711F0C8BF38B5A0F143
S31500000E0C430304460A2B32D8DFE803F0060A0A121B
S31500000E1C1231313131311100BDE8384029F0BEBEF6
S31500000E2C29F084FE20B129F0B9FE0028FBD138BD8B
S31500000E3C124D28780028FAD101232B700AF024FDD4
S31500000E4C462C11D007D8443C012C0AD90C487A21DF
S31500000E5C01F074FA05E0472CF8D140F6010027F0B2
S31500000E6C15FC00232B70E2E740F60200F7E7BDE81D
S31500000E7C384003488C2101F061BA00BF103A0020BB
S31500000E8C321B0300704770477047704770477047B6
S31500000E9C7047704770477047704770477047704788
S31500000EAC00207047704770470020704770477047A6
S31500000EBC0020704700207047704770477047704796
S31500000ECC70477047704770472DE9F047204EDFF8A2
S31500000EDCA090DFF8A0A000245FFA84F8404612F038
S31500000EEC63FCFF2805460CD11A493078224602F0DD
S31500000EFC89FC307801340AF03BF8152CECD1BDE8AE
S31500000F0CF087154B59F82420144947B233EA2703C6
S31500000F1C28BF5346307802F075FC002FE9DA14B17D
S31500000F2CB8F1030F08D10E4B0E49307815F0010FAE
S31500000F3C08BF194602F066FC0A2CDAD10A4B0B499B
S31500000F4C307815F0010F08BF194602F05BFCD0E7AC
S31500000F5CD9210020D71B030047AA0300FF1B03005F
S31500000F6CB01B03009A1B0300CC1B0300C21B03001F
S31500000F7C001D0300BD1A030082B2074B42B11A8052
S31500000F8C000C064B0ABF4FF6CE2218801A8070470B
S31500000F9C4BF6EF62F3E700BF5421002056210020E8
S31500000FAC0B4BB3F900201888002AB8BF80F06200FA
S31500000FBC42001A80074AB2F9001013880029BCBFF8
S31500000FCC83F4805383F00B0359001180584070470B
S31500000FDC5421002056210020034B1870034B197026
S31500000FEC034B00221A707047FA370020F93700209D
S31500000FFC063A00202DE9F74FDFF8989099F8003063
S3150000100C06460F46002B41D04FF6FB7398423DD84F
S3150000101CDFF88480DFF884A098F8004000259AF861
S3150000102C000050FA85F06946C0B21CF06DFC08222F
S3150000103C394668465FFA85FB30F03AFCF8B95C46EF
S3150000104C98F80030A3420AD199F80020631CDBB251
S3150000105C9A4288F8003004BF002388F800309AF8CA
S3150000106C00301C44E4B2394620461CF08FFD68B9AA
S3150000107C3146204603B0BDE8F04F1CF013BC99F87E
S3150000108C00200135EBB29A42C9D8D9E703B0BDE8C6
S3150000109CF08F00BFF9370020063A0020FA370020FF
S315000010AC024B187800F07F00704700BF8E3A002084
S315000010BC034B18780130C0B2187000F07F007047EF
S315000010CC8E3A00201FB5030A8DF80E3003230093C9
S315000010DC03AB8DF80D0000F0CDF905B05DF804FBFF
S315000010EC1FB5030A8DF80F1004218DF80E300091F0
S315000010FC03AB8DF80D0000F0BDF905B05DF804FBEF
S3150000110CF0B589B01768BDF838509DF83C60CDF83D
S3150000111C09708DF812505768DDF840C0BDF8444090
S3150000112CCDF80D702D0A012E8DF811308DF8135057
S3150000113C8DF8146016D0032E1BD1DCF80030CDF8D8
S3150000114C1530DCF80430CDF819309DF848308DF8A0
S3150000115C1D3016230093BDF84C2002AB00F08AF923
S3150000116C09B0F0BD8DF81540240A8DF816400F23F2
S3150000117CF0E70120F4E71FB50446084611461A4667
S3150000118C02238DF80D100093214603AB00F072F983
S3150000119C04B010BD10B586B014461A460B68CDF8CF
S315000011AC0D304B68CDF811300A230093342103AB74
S315000011BC8DF8154000F05EF906B010BD30B585B05F
S315000011CC0024ADF80A20021D92B2012A1D46ADF884
S315000011DC0840ADF80610ADF8044003D94FF6FF727F
S315000011EC904207D1064A2B46127801A91AF0E2FB67
S315000011FC05B030BD014601AA20461AF0A1FCF7E75E
S3150000120CE02100202DE9F04F2DED028B87B00C4626
S3150000121C00901D4617464AB3104613F0C3F9C0F3A7
S3150000122C470A2DB3284613F0BDF9C0F34708FFF75C
S3150000123C3FFF009B8DF810008DF811308DF8134090
S3150000124C1B0A240A0022062104A88DF812308DF8F8
S3150000125C14408DF815A013F0A1FAADF80E0048B99C
S3150000126C182007B0BDEC028BBDE8F08F9246D8E78C
S3150000127CA846DCE74FEA4A01C9B201F1060B073171
S3150000128C5FFA81F901EB48015FFA8BF3C9B20DF1F4
S3150000129C0E0008EE103A13F078FC04460028DFD155
S315000012AC834606265FFA8BF18A45BDF80E3011D8B7
S315000012BC18EE101A4246184613F0DCFCE6B2B0459E
S315000012CCBDF80E3027D8BDF8482000980621FFF748
S315000012DC75FFC6E7490001F0FE013846019313F08D
S315000012ECB5FC019B02463146184613F0C3FC711F30
S315000012FCBDF80E300193C9B2384613F0A7FC019B1A
S3150000130C711C0246C9B21846023613F0B3FC0BF137
S3150000131C010BF6B2C6E77600F6B2314628460193C3
S3150000132C13F094FC019B02464946184613F0A2FCA6
S3150000133C711CC9B22846BDF80E7013F087FC09F172
S3150000134C01010246C9B2384609F1020913F092FCB2
S3150000135C01345FFA89F9B1E7F0B589B00E4602A9F6
S3150000136C05460BF021FA00287ED0FFF7A1FE8DF87A
S3150000137C100012F0D7FB8DF8110012F0D3FB3C4A8B
S3150000138C8DF81B501368CDF813305368CDF8173011
S3150000139CBDF808308DF81C30000A1B0A8DF81200B7
S315000013AC8DF81D3000229DF80D308DF81E300F2162
S315000013BC04A813F0F3F9ADF80600002856D0002760
S315000013CC9DF80D30FAB2934216D801231A460DF148
S315000013DC0E010DF1060013F01DFA00279DF80E30D4
S315000013ECFAB2934224D8BDF80630324620210020AA
S315000013FCFFF7E4FE09B0F0BD002128460BF000FA19
S3150000140C01231A4604468DF805000DF105010DF170
S3150000141C060013F0FFF90123240A1A460DF1050103
S3150000142C0DF106008DF80540013713F0F3F9C7E707
S3150000143C012128460BF0E4F901231A4604468DF8DF
S3150000144C05000DF105010DF1060013F0E3F901237A
S3150000145C240A1A460DF105010DF106008DF805401A
S3150000146C013713F0D7F9B9E7A320C3E71820C1E772
S3150000147C7F390020F7B50E469DF8201001911C46C9
S3150000148C17460546FFF714FE0199207000222046E8
S3150000149C13F084F9034638B13A463146284603B070
S315000014ACBDE8F040FFF78ABE182003B0F0BD08B5C2
S315000014BCFFF736F8BDE808400EF030BE08B5FFF76A
S315000014CC32F80EF05BFE07F0E9FFBDE8084008F0C5
S315000014DC39B908B5FFF728F806F078FEBDE80840DC
S315000014EC09F058B8FFF779B8FFF77DB800207047B8
S315000014FC38B504460D46FFF78FF829462046BDE859
S3150000150C38400AF06FBAFFF770B808F0A5BB402256
S3150000151C032101200FF0F4BA0122032110460FF02B
S3150000152CEFBA0022032101200FF0EABA02220321AE
S3150000153C01200FF0E5BA00224FF4A06109200FF04C
S3150000154CDFBA01224FF4A06109200FF0D9BA0122AB
S3150000155C002109200FF0D4BA06289ABF014B185C5B
S3150000156CFF2070471777030006289ABF014B185CBB
S3150000157CFF2070471077030070B5104D05EB810402
S3150000158C0246A6783009FFF7E7FF107106F00F0048
S3150000159CFFF7EAFF5071FF3815F82130537018BF6A
S315000015AC01206378E070064C9071937011462046CA
S315000015BC04F052FD0123A36070BD00BFEA37002082
S315000015CC002000401FB50023CDE90133204A214CF1
S315000015DC0393FF238DF809302378516C906B0140EF
S315000015ECC907DBB22AD5022B28D81B49906C01EB14
S315000015FC830182B2C97819B110F4004F18BF0022CA
S3150000160C1649174821F813201649012202FA03F34A
S3150000161C0A7813430B700378B3B100230278DA40CF
S3150000162CD207D9B20CD521700278012404FA03F33F
S3150000163C5340DBB2037001A8FFF79EFF04B010BD48
S3150000164C0133032BEAD1F9E703232370F6E700BF36
S3150000165C00200040F6370020EA370020E031002059
S3150000166CF7370020F837002007B501230822694612
S3150000167C0020FFF721F94FF6FD71684600F0CAF815
S3150000168CFF28024606D1064901200DF05BFC03B08B
S3150000169C5DF804FB034901200DF054FCF7E700BF8D
S315000016AC1E7703003A77030007B501230822694623
S315000016BC0020FFF701F9684600F012F930B9044929
S315000016CC01200DF03FFC03B05DF804FB0149F7E780
S315000016DC577703006577030007B50123082269468F
S315000016EC0020FFF7E9F8684600F076F8FF28024676
S315000016FC06D1064901200DF025FC03B05DF804FB6C
S3150000170C034901200DF01EFCF7E700BF7A770300B2
S3150000171C8A7703002DE9F7431C49DFF87880DFF858
S3150000172C789002200DF00EFC002634464FF6FF771B
S3150000173C0BF09CF9F5B2A8420AD80BF097F91449AC
S3150000174C03462246022003B0BDE8F0430DF0FABB77
S3150000175C28461CF0F1F8B842034615D02A464146F5
S3150000176C02200DF00DFC284669461CF0CDF801341C
S3150000177C0220E4B20DF0D2FB10B168460DF054FB1A
S3150000178C494602200DF0DEFB0136D1E7A7770300B0
S3150000179CC0770300B5770300BD1A030037B50020E8
S315000017ACFFF754F804460220FFF750F8E4B205465A
S315000017BC69460120FFF7A3F8AAB26946204600F055
S315000017CC5BF804490346224602200DF0BBFB03B02E
S315000017DC30BD00BFD7770300F7B5054698B1002694
S315000017EC4FF6FF77F4B220461CF0A6F8B84209D0A3
S315000017FC694620461CF088F808226946284630F0CF
S3150000180C57F808B11EB1FF24204603B0F0BD0126DF
S3150000181CE8E700002DE9F34106460F4600254FF692
S3150000182CFF78ECB220461CF087F8404511D069468B
S3150000183C20461CF069F808226946304630F038F824
S3150000184C58B125B1FF24204602B0BDE8F081012530
S3150000185CE7E7314620461CF099F94FF6FD739F4297
S3150000186C03D0394620461CF01DF8024A535D01335D
S3150000187C5355E8E7FB3700200128F8B50546164610
S3150000188C12D80B4F3B5C8BB91CF080F9044638B967
S3150000189C4FF6FD739E4203D0314628461CF002F8E3
S315000018AC01237B552046F8BD6A24FBE77624F9E72D
S315000018BCFB370020012808B50ED8084A135C2BB953
S315000018CC4FF6FF711BF0EEFF002008BD013BDBB2AB
S315000018DC1354002BF8D1F3E76A20F6E7FB37002008
S315000018EC08B5FFF779FFBDE80840FFF7E3BF012015
S315000018FC704701207047012070470000014B002201
S3150000190C1A707047C42A002008B5134B00221A70AF
S3150000191C124B197811B11A70FEF70DFE104B1A788E
S3150000192C032A0ED8DFE802F0020E100201220D483F
S3150000193C1A704FF47A7112F011FA26F0E7FE0A4B80
S3150000194C188008BD02221A70064B00221A70BDE8D8
S3150000195C0840FEF7F2BD00BFC42A00206621002015
S3150000196CCC380020A42A00200A32002013B526F019
S3150000197CCDFE134B134A1B88C01A00231370124A50
S3150000198C1370124B1A78012A80B205D001220190ED
S3150000199C1A70FEF7CFFD01980D4CB0F57A7F09D37E
S315000019AC2178B1FA81F14909FEF714FD032323705E
S315000019BC02B010BDFEF7C0FD064812F0C3F9F5E7FC
S315000019CC0A320020AC2A0020A42A0020662100201E
S315000019DCCC380020C42A002008B5134B00221A70FC
S315000019EC124B197811B11A70FEF7A9FD104B1A7823
S315000019FC032A0ED8DFE802F0020E100201220D486F
S31500001A0C1A704FF47A7112F0A9F926F07FFE0A4B80
S31500001A1C188008BD02221A700648FA2112F09EF9A7
S31500001A2CBDE80840FEF78EBDC42A002067210020C1
S31500001A3CCE380020B42A00200C32002013B526F034
S31500001A4C65FE134B134A1B88C01A00231370124AE7
S31500001A5C1370124B1A78012A80B205D0012201901C
S31500001A6C1A70FEF76BFD01980D4CB0F57A7F09D311
S31500001A7C2178B1FA81F14909FEF762FD032323703F
S31500001A8C02B010BDFEF75DFD064812F05BF9F5E7F6
S31500001A9C0C320020BC2A0020B42A0020672100202A
S31500001AACCE380020C42A00200E280BD10C4B01295D
S31500001ABC1B7803D123B90B4812F044B9002BFAD189
S31500001ACC0948F9E70F280AD1084B01291B7802D1DE
S31500001ADC1BB90748F0E7002BFBD10648ECE770472B
S31500001AECCB380020A42A0020AC2A0020CD380020B8
S31500001AFCB42A0020BC2A00202DE9F74FDFF8849089
S31500001B0C06460D4614461F4603F10C0A4FF0010B10
S31500001B1C15B903B0BDE8F08F102DA846184B28BF99
S31500001B2C4FF010085FFA88F13A4652F8040B43F866
S31500001B3C040B5245F9D101919AF800201A701148FC
S31500001B4C89F80F40002389F800B089F80E3001346B
S31500001B5C1CF0BAF80B480199E4B2324612F801CBE4
S31500001B6C10F8013B83EA0C0302F8013C931BDBB231
S31500001B7C9942F3D8A5EB0805ADB21646C8E700BFE7
S31500001B8CAB390020AA3900202DE9F74F16460193F0
S31500001B9CBDF830900D9B344A00930F4680460346A1
S31500001BAC00F10C0153F8040B42F8040B8B42F9D1EB
S31500001BBC2E4C1B7813704923237020464FEA1923A9
S31500001BCCA37384F80F901CF07FF8237883EA16230E
S31500001BDC237063784FF0020A7340637052464FF0DD
S31500001BEC000B1BE0C2F11005A6EB0B039BB2ADB2CA
S31500001BFC9D4228BF1D4600231FFA83FCD018AC4516
S31500001C0CC0B21BD32A44D2B2AB44102A2F441FFABB
S31500001C1C8BFB03D120461CF057F80022B345E1D3C9
S31500001C2C12B120461CF050F8BAF1010F4FF0000229
S31500001C3C0ED0019F4FF0010A4E46D0E717F803C0AD
S31500001C4C14F800E08CEA0E0C04F800C00133D3E75C
S31500001C5C0099236800980B604346042103B0BDE845
S31500001C6CF04FFFF749BF00BFAB390020AA3900205F
S31500001C7CF7B5099FBDF82050CDE9005706461C461E
S31500001C8CFFF782FF2DB13346012229462046FFF786
S31500001C9C33FF002003B0F0BD2DE9F743BDF82890C3
S31500001CACDFF83C801D4604460E4617460346494659
S31500001CBC28460122FFF720FF2B463A46314620469E
S31500001CCCCDE90098FFF760FF0B98042241462FF0F0
S31500001CDCEFFD002814BF7E20002003B0BDE8F08382
S31500001CECD138002073B51C46044D8B181E592E6036
S31500001CFCCDE90045FFF7D0FF02B070BD593A002080
S31500001D0C00207047002070470020704770477047CE
S31500001D1C2DE9F3410C4E0D4DDFF838800C4F0024A5
S31500001D2C56F8043B0BB9D8F8003035F8022B009264
S31500001D3C39462246012001340DF004F9292CEFD145
S31500001D4C02B0BDE8F08100BF702000208033002077
S31500001D5CEC7703002421002008B5FFF7D9FFBDE876
S31500001D6C084000F0F7B8000007B50020FEF76EFD3E
S31500001D7CC2B2282A0DD8084B53F822300BB9074BA0
S31500001D8C1B68074931F812100091012005490DF026
S31500001D9CD9F803B05DF804FB702000202421002044
S31500001DAC80330020EC770300FFF7B2BF70470000CA
S31500001DBC38B50020FEF74AFD04460120FEF746FD25
S31500001DCC0549054601200DF0BDF8A9B2E0B2BDE803
S31500001DDC384000F0D7B800BFF77703002DE9F34180
S31500001DEC0C4E0D4DDFF838800C4F002456F8043B92
S31500001DFC0BB9D8F8003035F8022B0092394622463A
S31500001E0C012001340DF09EF8292CEFD102B0BDE86B
S31500001E1CF08100BF70200020D2330020EC77030045
S31500001E2C24210020F7B502AB03E906000446174649
S31500001E3C11F00CFB0646204611F018FB9DF80050DD
S31500001E4C8EB1202C0FD83B78012B33D803EB4313E0
S31500001E5C394923444FF6FF7031F81320824202D0E1
S31500001E6C013221F81320354B354E33F8140036F871
S31500001E7C14104FF6FF7290421CBF421C23F814201C
S31500001E8C04F0FD02092A2DD19A8AB68A2A44B24256
S31500001E9CB4BF9A829E8233F814308B422DD2294BD2
S31500001EAC002513F8012B94422DD00135112DF8D1B4
S31500001EBC03B0F0BD022BD6D11F4B33F814104FF6DE
S31500001ECCFF72914204F121021CBF013123F8141058
S31500001EDC33F812104FF6FF7081421CBF013123F804
S31500001EEC1210C0E71D2CD6D15A8F56198E4203DA22
S31500001EFC013A2A445A87CEE759878842CFD22046E0
S31500001F0CFEF721FBCBE729F0CCF80F4B1B7883426D
S31500001F1C044603D80D48DD2100F010FA04EB041436
S31500001F2C0B4A2C444FF6FF7132F814308B42BFD05B
S31500001F3C013322F81430BBE7243400208033002010
S31500001F4CD2330020537B0300AB210020DF7A030041
S31500001F5CA83400200248522200212FF0E1BC00BF19
S31500001F6C8033002002485222FF212FF0D9BC00BF3B
S31500001F7CD233002008B5FFF7EDFFBDE80840FFF7A8
S31500001F8CF1BF0000014B23F810107047D23300202C
S31500001F9C10B5104C1049A161032321660F4910227C
S31500001FACC4E904330E4BE361C4E9191200230D494D
S31500001FBCA362E01D6362E3622367E36663672262E2
S31500001FCC2FF0C0FC084920462FF0BCFC2023A3713F
S31500001FDC10BD00BF00240020647B0300C93700201D
S31500001FECD93700206D7B0300717B03002DE9F84F78
S31500001FFCDFF87C8098F800308246894616460BB985
S3150000200CFFF7C6FF182707FB0A873D6FD7F86CB09A
S3150000201C5D452BD9BC6E796E641BB44228BF344621
S3150000202C2944484622462FF053FCBB6E2544A14456
S3150000203C361BAB4208BF0025ABEB0502964228BF08
S3150000204C164656B1182303FB0A833246596E484688
S3150000205C29442FF03DFC3444354424B1182000FBB0
S3150000206C0A88C8F870502046BDE8F88F0024E3E7CC
S3150000207C0024002037B50446CDE9002104F01DFDEF
S3150000208CDDE9002105462046FFF7B0FF0446284649
S3150000209C04F019FD204603B030BD00002DE9F843CD
S315000020AC134C1E4623788146884617460BB9FFF714
S315000020BC6FFF04F002FD61690D4A0025536E3BB1BA
S315000020CC0135A94202F11802F8DC4FF0FF350AE09F
S315000020DCA942FADD182202FB0544C4E91898A76642
S315000020EC2367E366666704F0EEFC2846BDE8F883D2
S315000020FC00240020FFF74CBF012270B511460420C6
S3150000210C04F026FB1C4B1D4DD3F8F0201C4842F066
S3150000211C0102C3F8F020D3F8FC204FF0604442F0E3
S3150000212C8072C3F8FC20174BC4F8B03F002602237C
S3150000213CC4F8006EC4F8806EC5F8F03004F0B4F93B
S3150000214C00F5D520104B114A00F2FC40B0FBF3F021
S3150000215C0F4B01382861C4F8406E1A600D4BC4F859
S3150000216C803E4FF48073C5F80433D4F8003E43F434
S3150000217C8073C4F8003E70BD00ED00E0000004E082
S3150000218C06000E0055CEACC5F8590D00FF030040F5
S3150000219C001000E00D00010010B50121124804F0FA
S315000021AC37F8124B0124C3F81048002005F096F9B5
S315000021BC234604220221052005F0E2F920460FF001
S315000021CC5BFCFFF799FF0FF05BFC094B1C70FFF7EC
S315000021DC91FF2346074908484022FFF75FFF074B4C
S315000021EC1860C00F10BD00BF00350A0000801442F5
S315000021FC59390020193A0020787B03009C1F0020D7
S3150000220C034BD3F8F000003818BF0120704700BF0D
S3150000221C00ED00E0054A4170D12303701378C370BA
S3150000222C090A8170591C1170042070475F3A00200E
S3150000223C2DE9F74F91F80080B8F1040F82460F464E
S3150000224C5FD926F063FA08F10505DFF8C090019016
S3150000225CEDB24FF6FF760024D9F8F0200AB1A5426C
S3150000226C07D8281B18BF012004233B7003B0BDE818
S3150000227CF08F26F04BFA019BC01A80B2B0F5FA7FAC
S3150000228C41D8A4B3012C36D0EA1E04F1010B9442BA
S3150000229C5FFA8BFB19D1F4B24FF06042D2F8801E74
S315000022ACCB0710D5D9F8FC1041F08071C9F8FC1099
S315000022BCD2F8001E41F48071C2F8001E116A002982
S315000022CCF0D082F820405C46C6E7AA1E944202D1A2
S315000022DCC6F30724E0E76A1E944210D054443146F4
S315000022EC14F8024C2046FEF779FD0646D4E75B242B
S315000022FC4FF0010BD0E744464FF0020BCCE75D24C0
S3150000230CCAE70020B0E70120AEE700BF00ED00E011
S3150000231C00B5084B91B0186840226946FFF7AAFE33
S3150000232C20B1C2B26946122028F09CFD11B05DF8AE
S3150000233C04FB00BF9C1F002042DE704738B50446E4
S3150000234C0D4610F033FD00F0D3FD04F0AEFB29462C
S3150000235C204628F053FD06492B462246012008F05C
S3150000236C0DFE29462046BDE83840FFF7E5BF00BF05
S3150000237C887B03006D4B2DE9F0416D4C5A68A265C4
S3150000238C5A6AE2656B4AD2F800122166D2F8042228
S3150000239C62669A6AA266DA6AE2661A6B22675A6BF8
S315000023AC6267DB6BA26BA367D4E90F3512F0040FDF
S315000023BC08BF1D4626F08EF900228542034660654D
S315000023CC22655CD35C4A954259D8AA696264E9696C
S315000023DCA164B4F85810C1F30801062953D1574922
S315000023EC8A4250D356498A424DD211884DF64262E2
S315000023FC914248D16268C4F89420A268C4F8982027
S3150000240C40F201704F4A934238BF13464E4A9342EC
S3150000241C3CD3D31AE3640023C4E91F33C4E9213344
S3150000242CC4E92333484EDFF814C1DFF814E1AE4299
S3150000243C32D8D4E91FC7D4E92165D4E923124FF069
S3150000244C000E013BDBB2FF2B41D1BEF1000F05D0D4
S3150000245CC4E91FC7C4E92165C4E92312B4F858308E
S3150000246CC3F30803DA1E0F2A55D8DFE802F05B3AED
S3150000247C474A54545454545154545454543E0022C0
S3150000248CC4E911221D464FF42060BBE71968B1F16F
S3150000249CCD3FBED10433BAE756F8042D6245C6D3F8
S315000024AC7245C4D2D107C2D5284F002157F8048BE8
S315000024BC9045BCD00131C9B20629F7D10BB9052319
S315000024CC01E0013BDBB204EB8301CA67AFE7E046F0
S315000024DC4FF0010EBC4637462E460D461146424677
S315000024ECAFE740F60220BDE8F081194BDB6913F02B
S315000024FC020F40F2025318BF1846F4E740F60320C9
S3150000250CF1E740F60423B0F5206F08BF1846EAE75A
S3150000251C40F60520E7E7013B40F60722412B98BF22
S3150000252C1046E0E740F60120DDE700BF00ED00E0D5
S3150000253C0000002000E100E0201A00202403000027
S3150000254C881903009C000020401A00207C00002003
S3150000255C002005400E2804D00F280CBF01200220B5
S3150000256C70470020704700002DE9FF474FF4807339
S3150000257CADF80C3001F0F6FB1848194FDFF86890EF
S3150000258C012103F045FE1748012103F041FE0DF130
S3150000259C0C080224012618F8013B17F8335007EBF8
S315000025ACC3030122D3F804A028460023514604F0A5
S315000025BCE7FF49465FFA8AF001F0ECFBCDE90066CD
S315000025CC012352465146284604F094FF012C02D1B1
S315000025DC04B0BDE8F0870124DDE700BF40410500EB
S315000025EC9C7B030000350A007D26000008B5FFF72A
S315000025FCB1FF022816BF024B0020185C08BD00BFB5
S3150000260CCF38002008B5FFF7A5FF02281CBF014BE9
S3150000261C195408BDCF38002008B5FFF79BFF0228D8
S3150000262C05D0034A135CB3FA83F35B09135408BD54
S3150000263CCF38002008B5FFF78DFF022811D00A4AC3
S3150000264C12F8303030214B4302EBC00007491944D5
S3150000265C436803EBC1039B001868B0FA80F040098D
S3150000266C08BD0020FCE700BF9C7B03001CA01002E9
S3150000267C70B50446FFF7DEFF0146002520460E46E0
S3150000268CFFF7D8FFB0420146F7D10135052DF5D13C
S3150000269C2046FFF7ABFF8842204609D0FFF7B2FF72
S315000026AC2046FFF7A3FF0146204609F015FF70BD33
S315000026BCFFF7B2FF2046FFF799FF0146204609F0C7
S315000026CC0BFF2046FFF7A8FFEAE7000010B505F060
S315000026DC47FA044605F03EFA0022012101FA02F3FC
S315000026EC234014D01D4B1E4933F81230062B14D040
S315000026FC40F2072293420DD11A4A1B4814688442B1
S3150000270C08D14CF23C33538013880B8015E0013210
S3150000271C112AE3D1124A13800FE0124A50884FF265
S3150000272C0F03984216D11388B3F5406F28BF4FF4A8
S3150000273CC0630B804CF23C335380094B1A8840F231
S3150000274C01739A4201BF094A094BD2E90001C3E958
S3150000275C000110BD4FF4C063EBE700BFAC7B030078
S3150000276C903500200000002007020FF09400002096
S3150000277CC42E0020014B1888000A704790350020A3
S3150000278C014B1888704700BF903500202DE9F04F9B
S3150000279C4D4DAB6BD5F850B0D5F840A05A074FBF8E
S315000027AC0027D5F84CB0D5F85480D5F83CA05ABFC4
S315000027BC464FDFF84091DFF84091454A48BFB8468E
S315000027CC13F0080F434B18BF1A46B7EB08061CBF8D
S315000027DC7308642187B01FBF01FB0B33B3FBF6F301
S315000027EC9BB205933C49CDF800804B46CDE9017A66
S315000027FC08BF0596044601F005F8B3B2CDE900937F
S3150000280C3649059B1FFA8BF2204600F0FBFFAB6B9B
S3150000281C5B070AD49C3E5E4507D16A6D304B9A42E3
S3150000282C03D23049204600F0EDFFBA4501D8C24527
S3150000283C04D22D494A46204600F0E4FF204608F013
S3150000284C97FBD5E91823134337D02849DFF8AC801A
S3150000285CDFF8AC90204600F0C1FF002601272A6E57
S3150000286C07FA06F3134207D058F8262013781BB143
S3150000287C4946204600F0B2FF0136202EEFD1DFF894
S3150000288C7C80DFF87C90002601276A6E07FA06F337
S3150000289C134209D008EB8603D3F8802013781BB1BA
S315000028AC4946204600F09AFF0136122EEDD12046FD
S315000028BC07B0BDE8F04F00F09FBF0D49204607B0AA
S315000028CCBDE8F04F00F09EBF00000020401A00202B
S315000028DCDA7B0300D37B0300E27B0300107C03004E
S315000028EC9C000020497C0300757C0300937C03004C
S315000028FCC27C0300CE7B0300CB9803007C850300CF
S3150000290C6D8D03002DE9F8430446FFF739FF40F6B9
S3150000291C052398420ED8B0F5206F0DD840F202531D
S3150000292C984217D040F2017398421ED040F20153E0
S3150000293C98420AD0BDE8F883A0F602205F4D032822
S3150000294C1FD8DFE800F0386598B55D49204600F0E1
S3150000295C59FF11E05B49204600F054FF574B5A6C67
S3150000296C5949204600F04EFF06E0544A5749D2E931
S3150000297C2523204600F046FF2046BDE8F84308F024
S3150000298CF7BA5349204600F03DFF95F86C309F0787
S3150000299C03D55049204600F035FF95F86F305E069A
S315000029AC03D54D49204600F02DFF95F96F30002BCD
S315000029BCE2DA4A49CAE74A49204600F023FF95F86D
S315000029CC6830980704D06A6C3F49204600F01AFF1D
S315000029DC95F96830002B04DA6A6F4249204600F0FC
S315000029EC11FFDFF80C81DFF8189100260127AA6E7B
S315000029FC07FA06F3134207D058F8262013781BB1B2
S31500002A0C4946204600F0FEFE0136082EEFD1B3E70C
S31500002A1C3549204600F0F6FE2B496A6C204600F03C
S31500002A2CF1FE95F86930590703D53049204600F078
S31500002A3CE9FE95F96930002B04DA6A6F29492046BC
S31500002A4C00F0E0FE2A4FDFF8B8800826AB6EF340A4
S31500002A5CDA0707D557F8262013781BB141462046CE
S31500002A6C00F0D0FE0136102EF0D195F86830002B10
S31500002A7C82D120496AE720491D4FDFF88480204621
S31500002A8C00F0C0FE6A6C1049204600F0BBFE102612
S31500002A9CAB6EF340DB0707D557F8262013781BB12E
S31500002AAC4146204600F0AEFE01361A2EF0D163E701
S31500002ABC1249204600F0A6FE6A6C51E70000002081
S31500002ACCD77C0300147D0300447D03005D7D030069
S31500002ADC777D03008F7D0300C97D0300FC7D030019
S31500002AEC387E03005D7E0300817E0300987E030022
S31500002AFC14850300DE7E03000E7F0300277F030090
S31500002B0C797E03002DE9F84F164DDFF86080DFF86B
S31500002B1C60A0DFF860900446002658F8043B2A466D
S31500002B2C51462046F7B200F059FE2A78AB460135DD
S31500002B3C002AFAD19BF8012092B10B4907F0030742
S31500002B4C032F08BF4946204600F048FE204608F0F1
S31500002B5C0FFA9BF801300136002BDED1BDE8F88F59
S31500002B6C4946F0E744860300B89B030004000020A6
S31500002B7C487F0300BB1A030000F00CB800F00AB83B
S31500002B8C00F008B800F006B800F004B800F002B87F
S31500002B9C00F000B872B61EF0080F09D01EF0040F34
S31500002BAC0DD0DFF850E0AEE8FF1F6FF002000CE02E
S31500002BBCDFF840E0AEE8FF1F6FF00E0005E0DFF82F
S31500002BCC34E0AEE8FF1F6FF006006946EFF30982AA
S31500002BDC8EE8070086460848084C854501D3A5456E
S31500002BEC01D384F30888FFF7C5FB84F3088825F026
S31500002BFC4DFD00000400002020110020401A00208A
S31500002C0CFFF7C6BF10B50B48012103F001FB0A48BC
S31500002C1C012103F0FDFA002304220821032004F00D
S31500002C2CAFFCBDE81040002304220921032004F068
S31500002C3CA7BC00BF4041050000350A00064B03EB5C
S31500002C4CC002516801228A4013F8301030235943D0
S31500002C5C024B5A50704700BF108703000CA0004669
S31500002C6C064B03EBC002516801228A4013F8301060
S31500002C7C30235943024B5A50704700BF108703004C
S31500002C8C0CA00044074A12F8303002EBC00251681F
S31500002C9C01228A4030214B4303F1804303F5204344
S31500002CAC9A6170471087030010B10020FFF7C6BF6A
S31500002CBCFFF7D6BF37B515467F2D1A464BF2346350
S31500002CCC08BF00259942044619D17F2241F2020120
S31500002CDC68460823FFF7EEFF2849082268462EF0BF
S31500002CECE7FD30B908237F2241F2F0116846FFF761
S31500002CFCE1FF6B4603CB2060616003B030BD41F24F
S31500002D0CF01399421DD11E4BD3F8F050D3F8F400B2
S31500002D1C0021CBB25AB9002AEFD0E0540133D9B214
S31500002D2C07294FEA102002F1FF32F4D9E5E7655482
S31500002D3C013104294FEA152502F1FF32E9D10B4680
S31500002D4CE9E701F47043B3F5805F0AD1C1F30B04D4
S31500002D5C04F17E6402FB054103B0BDE830402EF061
S31500002D6CB7BD01F46043B3F5005FC6D1C1F30B04E4
S31500002D7C04F17E6404F58044ECE700BF96870300FB
S31500002D8C0081E00F70B5054616461C46DBB14BF2CA
S31500002D9C3463994210D1082C28BF08247F2241F2B3
S31500002DAC02012346FFF786FF0749224628462EF0E6
S31500002DBC7FFD40B941F2F011234632462846BDE864
S31500002DCC7040FFF777BF70BD968703002DE9F84377
S31500002DDC1646C20704460F4603D52848DD21FFF7E1
S31500002DECADFAF30703D52548DE21FFF7A7FA04F45D
S31500002DFC7043B3F5805F21D1C4F30B0404F17E64F8
S31500002E0C1F4A731E23449342254603D91B48E321CC
S31500002E1CFFF794FADFF8649005EB0608454522D1D6
S31500002E2C56B372083946204625F0B7FB20B3BDE8E9
S31500002E3CF843124840F20F11FFF780BA04F46043CE
S31500002E4CB3F5005F07D1C4F30B0404F17E6404F5FB
S31500002E5C80442546DEE70948EA21FFF76FFA6FF052
S31500002E6C0F050024D6E715F8013BFF2BD6D0F4212D
S31500002E7C4846FFF763FAD1E7BDE8F88320870300DD
S31500002E8CFF07E00FFFF778BE1FB51548154C01215B
S31500002E9C03F0BEF901221146104603F059FC042139
S31500002EAC072004F047FE104A1068516801AB03C3B3
S31500002EBC906818600D238DF80C3001A90323204669
S31500002ECC8DF80D3005F089F8084B04220221C3F861
S31500002EDC802161621A60A36A0B43A36204B010BD21
S31500002EEC30253E00002005409E87030000E100E0EF
S31500002EFC014805F066B800BF00200540A52803D19F
S31500002F0C0248002105F047B8704700BF0020054075
S31500002F1C024B186800F00100704700BF0020054006
S31500002F2C024A9368002BFCD1704700BF0020054075
S31500002F3C00207047002070477047000013B572B62A
S31500002F4C03F0B3FD7C4B7D495B698B6000230B76EC
S31500002F5CE0204B768B764023C876087748778877BF
S31500002F6CCB77774B8022602481F8202081F82100D2
S31500002F7C81F8220081F8232083F8002383F801438B
S31500002F8C202483F8024383F8034383F8042383F84D
S31500002F9C052383F8062383F8072383F8082383F88D
S31500002FAC092383F80A2383F80B2383F80C2383F86D
S31500002FBC0D2383F80E2383F80F2383F8102383F84D
S31500002FCC112383F8122383F8132383F8142383F82D
S31500002FDC152383F8162383F8172383F8182383F80D
S31500002FEC192383F81A2383F81B2383F81C2383F8ED
S31500002FFC1D2383F81E2383F81F2383F8202383F8CD
S3150000300C212383F8224383F8232383F8242383F88C
S3150000301C252383F8262383F8272383F8282383F88C
S3150000302C292383F82A2383F82B2383F82C2383F86C
S3150000303C2D2383F82E2383F82F2383F8302383F84C
S3150000304C312383F83203CB6823F4E0631B041B0C97
S3150000305C43F0BF6343F40133CB604B6943F4007315
S3150000306C4B614B6943F010034B614FF4E0234B6209
S3150000307C05F042FDFFF72AFBEFF30883314A043BC8
S3150000308C4FF0CD31934222D22F4A304892B20021D2
S3150000309C2EF046FC62B62E4B01225A642D4BD3F809
S315000030ACFC202D4B120E15D14AF6E851C3F890119F
S315000030BCD3F8981141F00401C3F89811C3F8902184
S315000030CCD3F8642142F40052C3F8642104E043F8B7
S315000030DC0419D7E7012AF3D0204A136A23F44413C0
S315000030EC43F488131362A2F580420124136843F457
S315000030FC80731360184BD3F8A42142F4F842C3F83A
S3150000310CA4211C6105F032FC01F0B6FA00236846D6
S3150000311C0093ADF804308DF8034003F041FF00F046
S3150000312CE3F825F005FB00F0EDF828F033FF0C482A
S3150000313C06F0CAF802B010BD0000000000ED00E079
S3150000314C00E100E0E010002014100000A0000020B8
S3150000315C00000E400081E00F00300E4000400E4093
S3150000316C748C030040F2016025F090BAFEF7CEBDD8
S3150000317C08B500210B20FEF7C7FDBDE80840FEF799
S3150000318CC6BD08B1FDF74ABAFDF747BA032000F0F1
S3150000319CA7B9000008B5FFF7EDFA044B0B289ABF48
S315000031AC00B203EB8000184608BD00BFF28803008E
S315000031BC08B5FFF7E5FA044BC0F30F22C0B253F87B
S315000031CC223003EB800008BDBC88030010B5FFF766
S315000031DCD1FA0446FFF7D4FA10F0FF0005D1012C02
S315000031EC23D164F07F04E4B215E0072CF9D801A3CF
S315000031FC53F824F023320000EF3100002132000096
S3150000320C27320000273200002B3200002F3200003C
S3150000321C333200000924204610BD0224FBE70324A8
S3150000322CF9E70B24F7E70624F5E70446F3E700BFB6
S3150000323C38B50D46044688BB284B4A1E18605042CA
S3150000324C5041013D08F01EF9032D46D8DFE805F084
S3150000325C02131E2001210846FDF7E1F9FFF758FE7F
S3150000326C1F4B187010B1A520FFF748FEBDE838407B
S3150000327C012008F007B902210120FDF7D0F9FFF76C
S3150000328C47FE50B3BDE83840FFF74ABE0421F3E7CA
S3150000329C05210120BDE83840FDF7C1B9104B1B785C
S315000032AC1BB11048012104F076FE631E58425841AA
S315000032BC013C08F0FDF8032C0FD8DFE804F00208F7
S315000032CC0A0C012008F0F4F801210020E2E70221A3
S315000032DCFBE70421F9E70521F7E738BDC8310020E3
S315000032EC8B3A002000200540044AD2F81C341B0CF3
S315000032FC1B04C2F82434024A1360704700A0004035
S3150000330C8828002008B505F009FD18B1044892215B
S3150000331CFFF714F8BDE808400249034805F0B2BDB2
S3150000332C22890300741D0020142B0020134A144913
S3150000333CD2F82834D2F81C241340124A9BB21360DC
S3150000334CD1F80001400502D50868400506D4D1F82D
S3150000335C0001400305D50968480302D543F48033C0
S3150000336C1360074BD3F80011490006D51B685B00A8
S3150000337C42BF136843F400331360704700A000404B
S3150000338C00E100E0C8310020012838B504460BD016
S3150000339C831E012B07D9042824D0052801D103F05C
S315000033AC6FFD002400E0022403F078FB01210546A2
S315000033BC204605F0E3FC284603F074FB03F06AFB99
S315000033CC03F077FB05F084FD03F066FB03F066FB68
S315000033DC00210546204605F0D1FC2846BDE83840BC
S315000033EC03F060BB0324DFE7FFF7CEBF232910B43D
S315000033FC0C4607D80B49097889B1E1B25DF8044B44
S3150000340C27F016BAFF2903D95DF8044BFFF7BABCAF
S3150000341C05485DF8044B40F29511FEF78FBF5DF839
S3150000342C044B70477F3A00208E89030013B5104C6D
S3150000343C01230020237008F027FA40B1002008F081
S3150000344C23FA20B100232370492002B010BD0223B9
S3150000345C0DF106007F220021FFF7C8FFBDF80630EC
S3150000346C0020B3F57F7F1CBF20700720EDE700BF5F
S3150000347C7F3A00202328F7B504460F46154617D881
S3150000348C144A127892B1144E327832B11348019321
S3150000349C4FF4D071FEF752FF019B01223270294680
S315000034AC3A46E0B227F006FA0023337003B0F0BDBB
S315000034BCFF2806D91A46294603B0BDE8F040FFF7A7
S315000034CC85BC06484FF4D67103B0BDE8F040FEF754
S315000034DC35BF00BF7F3A0020603A00208E8903007A
S315000034EC024B1B780BB127F0D7BA70477F3A0020F6
S315000034FC104430B5054602B930BD01F00F030A2B56
S3150000350C34BF302437242344013A05F8013D090918
S3150000351CD2B2F0E7F0B519B3002820DA2D23B0F1BA
S3150000352C004F137000D04042012119E0801B8642E7
S3150000353CECB205F10105F9D914B9BCF1000F05D0AF
S3150000354C4D1C303454544FF0010CE9B2013B13F0CE
S3150000355CFF0309D130305054481CC0B2F0BD0021D5
S3150000356C034F09234FF0000C57F8046B0025DEE7D8
S3150000357CF48903002DE9F04F97B04FF0000B04AC23
S3150000358C8046894615469A465E462746297859B995
S3150000359CE41BE4B2224639464846C047002840F0B0
S315000035ACAD803444E0B2AAE0252916D0BBF1000F59
S315000035BC17D1204600F8011B044614AB9C42C0F000
S315000035CCE280E41BE4B2224639464846C04700284E
S315000035DC40F094802644F6B2D4E0BBF1000F00D143
S315000035EC01352978782906D8612907D825295ED08E
S315000035FC3AD80029CCD04FF0000BDEE7A1F16202DD
S3150000360C162AF8D801A353F822F000BFC5360000DD
S3150000361C4B370000973700000336000003360000D6
S3150000362C03360000033600000336000003360000A4
S3150000363C03360000973700000336000003360000FF
S3150000364C033600005B37000003360000033600002B
S3150000365C5B37000003360000973700000336000086
S3150000366C03360000AB360000392916D82F29C2D9EB
S3150000367C6A7802F0DF02582A40F0AD80322905F153
S3150000368C010B40F09C805AF8041B042289B2204698
S3150000369CFFF72EFF5D460446ADE75829ABD15AF825
S315000036AC041B0222C9B22046FFF722FF02E0204685
S315000036BC00F8011B04469EE7DAF800300293DAF8AC
S315000036CC04300193013B4FF0000B0393019B9B4588
S315000036DC02D10AF1080A8EE7029B204613F80B105A
S315000036EC0222FFF705FF14AB984204460DD3C41B08
S315000036FCE4B2224639464846C04718B1002017B0F6
S3150000370CBDE8F08F2644F6B23C46039B5B4582BF70
S3150000371C2046202200F8012B14AB88BF04469C429D
S3150000372C0AD3E41BE4B2224639464846C047002871
S3150000373CE4D12644F6B23C460BF1010BC6E75346E0
S3150000374C204653F8042B00F8012B9A46B2E7E41BEB
S3150000375CE4B22246394648465AF804BBC04700280C
S3150000376CCCD12644F6B2C4B201301BF80420002A90
S3150000377CF9D1224659464846C0470028BED12644B0
S3150000378CF6B283463C46013500E76C29DAF80000B0
S3150000379C0AF1040B0ED16B78752B14BF0121002195
S315000037AC01D0642B00D101352246FFF7B3FEDA4671
S315000037BC044420E775290CBF00210121F4E73429C4
S315000037CC09D15AF8045B0422290C2046FFF790FE17
S315000037DC0422A9B25CE74FF0010BEEE60EB403B57A
S315000037EC03AA52F8041B019207F02AFFC0B202B0DA
S315000037FC5DF804EB03B070470149FFF7EFBF00BF5C
S3150000380CBB1A03000EB433B505AA054652F8041BC1
S3150000381C019207F015FF04462846FFF7EDFFE0B2CC
S3150000382C02B0BDE8304003B0704708B507F008FF9A
S3150000383CC0B208BD2DE9F04F9A46554B85B01B78A2
S3150000384CDDF83C909DF844B0DDF8508006460F46F6
S3150000385C1546002B00F08B80072A00F28A800E9BFF
S3150000386C002B00F08680B9F1000F00F08280129BCD
S3150000387CB3F5006F7DDC012802D1109B002B78D0AC
S3150000388C444B03EB05131B7B002B74D0424C1022CC
S3150000389C002168462EF044F804EB45141022002F44
S315000038AC57D1394620462EF03BF843F2100363807D
S315000038BCBBF1000F03D1E37843F00303E370364A00
S315000038CC0E9BCDF800A002EB451CCCE90193129B94
S315000038DC013BC3F30A009DF84C30690103F0030366
S315000038EC9B0643EA001E53582C4818404EEA000328
S315000038FC012E535041D11323CCF80C309CE80F0009
S3150000390C0CF1100E8EE80F00DCF81C20109BCCF886
S3150000391C14306FF0030161F39F02012FCCF81C20C9
S3150000392C03D1CCF81890CCF804301A4A290102EBD2
S3150000393C051342F801800027159A5A6028469F60A5
S3150000394C5E732246694603F033FF384605B0BDE880
S3150000395CF08F002120462DF0E3FF4FF44473638073
S3150000396CBBF1000FABD1E37843F03003A6E70C486C
S3150000397CECE70C48EAE70C48E8E7B8F1000FD4D1BD
S3150000398C9CF8023068F304138CF80230CDE700BFC4
S3150000399CE039002080260020882700200F80FFF3C6
S315000039AC028000F0018000F0078000F038B5124B61
S315000039BC1B780546DBB1E0B103F07FF80F4A002314
S315000039CC1146147B54B92B601A0101EB0313012524
S315000039DC8C501D7303F077F8204638BD0133082B45
S315000039EC02F11002EDD103F06EF80548F5E7054833
S315000039FCF3E70548F1E700BFE039002080260020F8
S31500003A0C048000F0028000F0018000F013B503F092
S31500003A1C54F80C4A0023147B7CB90133082B02F1B1
S31500003A2C1002F8D1019003F079FE074B01981C7037
S31500003A3C03F049F8204602B010BD03F044F80348E1
S31500003A4CF9E700BF80260020E0390020058000F051
S31500003A5C0D4B1B7810B5044693B1072812D803F00A
S31500003A6C2CF80A4B03EB04131A7B2AB100241C73A3
S31500003A7C03F029F8204610BD03F025F80448FAE7B0
S31500003A8C0448F8E70448F6E7E039002080260020D1
S31500003A9C068000F0028000F0018000F013B5164B92
S31500003AAC1868019000238DF8043003F006F8134BC8
S31500003ABC1C7824B103F007F8114802B010BD01229E
S31500003ACC1A7003F000F80F4B1C731C7783F82C400C
S31500003ADC83F83C4083F84C4083F85C4083F86C4098
S31500003AEC83F87C4004230DEB03008DF8073003F0BC
S31500003AFC35FE2046E1E700BF188A0300E0390020B6
S31500003B0C038000F08026002010B588B00E9C079428
S31500003B1C0D9C06949DF8304005940B9C04949DF8DE
S31500003B2C284003940024CDE9013400920B4602464A
S31500003B3C21462046FFF77EFE08B010BD10B588B0B2
S31500003B4C0E9C07940D9C06949DF8304005940B9C96
S31500003B5C04949DF8284003940024CDE90134009286
S31500003B6C0B46024601212046FFF764FE08B010BD45
S31500003B7C0A4A127808B55AB107280BD8084A02EB3C
S31500003B8C00131B7B43B1002103F0DEFD002008BDB2
S31500003B9C0448FCE70448FAE70448F8E7E039002053
S31500003BAC80260020028000F0018000F0078000F0E3
S31500003BBC0A4A127808B55AB107280BD8084A02EBFC
S31500003BCC00131B7B43B1012103F0BEFD002008BD91
S31500003BDC0448FCE70448FAE70448F8E7E039002013
S31500003BEC80260020028000F0018000F0078000F0A3
S31500003BFC0A4A127808B552B107280AD8084A02EBC5
S31500003C0C00131B7B3BB103F025FE002008BD0548C5
S31500003C1CFCE70548FAE70548F8E700BFE03900205D
S31500003C2C80260020028000F0018000F0078000F062
S31500003C3C0D4B1B7893B1072812D889B10B4B03EBAC
S31500003C4C00131B7B73B10A4B1A6A012303FA00F0AB
S31500003C5C10401ABF00200B7008707047054870475B
S31500003C6C0548704705487047E0390020802600203B
S31500003C7C00200E40028000F0018000F0078000F06A
S31500003C8C0B4A127810B50C4662B107280CD859B1FC
S31500003C9C084A02EB00131B7B43B103F0F1FD2060D5
S31500003CAC002010BD0448FCE70448FAE70448F8E78E
S31500003CBCE039002080260020028000F0018000F010
S31500003CCC078000F02DE9F843DFF86480D8F86070BF
S31500003CDCD8F86C301F4000D5FEE7144CDFF8549032
S31500003CEC01260025374217D02368C8F868609BB1B7
S31500003CFCA16862680131A16028469847637B012B55
S31500003D0C0AD148B909EB45131A7B60F341021A73C1
S31500003D1C1A7F60F341021A770135082D4FEA4606E1
S31500003D2C04F11004DED1BDE8F88300BF8026002024
S31500003D3C00200E408827002070B5094E0446012548
S31500003D4C04B970BD94FAA4F0B0FA80F005FA00F349
S31500003D5C24EA030456F82030002BF1D09847EFE7FD
S31500003D6C202B002008B5122002F0BEFE28B1084B0D
S31500003D7C4FF48022C3F880211A600A2002F0B4FEA8
S31500003D8C28B1034B4FF48062C3F880211A6008BD3A
S31500003D9C00E100E038B504460D4602F08EFE034BFA
S31500003DAC43F82450BDE8384002F08DBE202B00208D
S31500003DBC054BD3F82804D3F81C24104000F05530DA
S31500003DCCC3F82404FFF7B8BF00A00040054BD3F896
S31500003DDC2804D3F81C24104000F0AA30C3F824049D
S31500003DECFFF7AABF00A0004038B500F051FB094B05
S31500003DFC094A196839B113684C69C51AAC4204D31F
S31500003E0C23441B1A4B61106003E0001B0023106057
S31500003E1C4B6138BD5C310020AC2D0020C38870B5D9
S31500003E2C04460D463BB905F007F88542064602D214
S31500003E3C05F01CF835460F4965610B68ABB90C608B
S31500003E4CA36011E0AD1A9A68656118462AB113464B
S31500003E5C5A69AA42F6D950B11A4684601346A36031
S31500003E6C13B15969491B596170BD0020F0E70C600C
S31500003E7CF5E700BF5C31002038B50F4B0F4D1C68C1
S31500003E8C2B685B6902201C4400F030FB204600F0D6
S31500003E9C05FB0B492A6800230B70D088800702D5D6
S31500003EAC01230B7038BD9268002AFBD0506903447D
S31500003EBC012BF2D9F6E700BFAC2D00205C310020B7
S31500003ECC073A002070B59DF814500571002516466A
S31500003EDC8560049ABDF81850C580C0E903360446BF
S31500003EEC02600D4629B941610BB11146984796B14E
S31500003EFC354602F0E2FD0646FFF776FF29462046D8
S31500003F0CFFF78CFF054B1B68A34201D1FFF7B4FFEB
S31500003F1C304602F0D8FD002070BD00BF5C31002099
S31500003F2C0C490B6800227BB183420AD183687AB1B3
S31500003F3C936083681BB15A6941690A445A6100202F
S31500003F4C70471A469B68EEE70028EFD002207047B0
S31500003F5C0B60EEE75C31002070B5154E02F0ADFD3E
S31500003F6C34780546FCB9134B1C60134B1C60134B81
S31500003F7C1C8000F049FA012000F0B8FA00F004FBAE
S31500003F8C0F4B0246186020B9284602F09CFD2320F0
S31500003F9C70BD23460B4840F2E7312DF0CFFA0A4BA1
S31500003FAC186001233370284602F08DFD0020EFE7E0
S31500003FBCE83900205C310020AC2D00201A35002099
S31500003FCC5831002018FCFFFFB42D00202DE9F041DC
S31500003FDC0546F8B102F071FD0F4F0646FFF704FFD8
S31500003FEC2846D7F80080FFF79BFF044628B13046D9
S31500003FFC02F069FD2046BDE8F081A8453B6803D177
S3150000400C23B1FFF739FFF2E7002BF0D1022000F0C5
S3150000401C7BFAECE72224EDE75C31002070B586B024
S3150000402C154605911E46044680B1FFF7CFFFBDF835
S3150000403C2C3002939DF828300599CDE900630022B7
S3150000404C2B462046FFF73EFF06B070BD2220FBE74D
S3150000405C38B50C46054698B191B100230B7002F0A9
S3150000406C2CFD084B1B6801210BB122781AB102F00A
S3150000407C2AFD002038BDAB4214BF9B682170F3E7C4
S3150000408C2220F7E75C310020F0B587B01F460023ED
S3150000409C0D4616468DF817300446A0B10DF11701E2
S315000040ACFFF7D6FF9DF817207AB9BDF83430029386
S315000040BC9DF830302946CDE9007320463346FFF78C
S315000040CC01FF07B0F0BD2220FBE70320F9E7000053
S315000040DCF8B50C460546C8B1C1B102F0EEFC064671
S315000040ECFFF782FE6B692360134B1B68AB420FD044
S315000040FC23B9304602F0E7FC03201CE0596922681C
S3150000410C9B680A442260F1E700230FE0222012E0AC
S3150000411C0A4D276800F0BCF92B68C01A8742F3D900
S3150000412C00F0B6F92B68226813441B1A304623603C
S3150000413C02F0C9FC0020F8BD5C310020AC2D00203B
S3150000414C2DE9F0410746884602F0B7FC134B1C6874
S3150000415C0546002624B9284602F0B5FC1B2016E0BD
S3150000416C63691E44E388BB4215D10D4C00F090F9EF
S3150000417C2368C01AB0420CD200F08AF92268324485
S3150000418C121A2846C8F8002002F09DFC0020BDE853
S3150000419CF0810022F5E7A468DCE700BF5C31002063
S315000041ACAC2D0020014B1878704700BF073A002051
S315000041BC38B502F082FC054600F06AF9044628463A
S315000041CC02F081FC204638BD70B502F076FC06463E
S315000041DC00F05EF9084B1D8804460120ADB200F0D4
S315000041ECABF918B100F054F901350446304602F02B
S315000041FC6AFC2046294670BD1A350020014B18680A
S3150000420C704700BF583100200A4B1B68834210B51B
S3150000421C0C460CD3084B19684FF47A720023A0FB9A
S3150000422C01012DF08BF901302060002010BD2120FA
S3150000423CFCE700BFB42D0020583100200F4B1A6844
S3150000424C10B59AB1531E4FF47A711342A0FB0101BB
S3150000425C0ED1B2FA82F2C2F11F04531CE040D243D3
S3150000426C01FA03F3184321FA02F20243104610BD79
S3150000427C00232DF063F90246F8E700BF5831002001
S3150000428C164B8342164B8B4170B5154624D3154BF2
S3150000429C1A680AB34FF47A76541EA0FB0603144030
S315000042AC06FB013111D1B2FA82F3C3F11F025E1C77
S315000042BC01FA06F6DB43D04021FA03F330431843E8
S315000042CCD140C5E90001204670BD00232DF036F91A
S315000042DC0024C5E90001F6E72124F4E7EFA7C64B55
S315000042EC3789410058310020C2072DE9F84F0446A2
S315000042FC0BD5414A138801339BB21380FFF774FD2B
S3150000430C3E4B1B680BB1FFF7B7FDA30771D5DFF862
S3150000431CF49000F0BDF8D9F800700646C71B02F001
S3150000432CCCFB4FF0000805464246C346334B1C688F
S3150000433C14B16369BB4219D9314B0021B8F1010F95
S3150000434C197005D122B1D288022A08BF83F80080E1
S3150000435C002C4AD06369C9F80060DB1B6361FFF768
S3150000436C8BFD2846BDE8F84F02F0ADBBC9F80060DE
S3150000437C23463A465969914209D8187994F804C0EB
S3150000438C844588BF1C469B68521A002BF2D12846DE
S3150000439C02F099FB6569C4F814B002F08EFB8246F4
S315000043AC2046FFF7BDFD504602F08DFB23694BB14D
S315000043BC02F083FB216982462046FFF72FFD50460B
S315000043CC02F081FBE36813B121682046984700F0A0
S315000043DC5FF835447F1B8246074402F06EFB08F1FA
S315000043EC0108054622465646A0E7022000F08CF846
S315000043FCB7E7BDE8F88F00BF1A3500205C31002006
S3150000440C6C3A0020AC2D002010B51D4B86B01868F8
S3150000441C596803AA03C2197AD3F8090011700190DE
S3150000442CB3F80D201748DB7BADF8082001218DF879
S3150000443C0A30002401F0ECFE03A88DF80C408DF830
S3150000444C104003F0DBFB01A901208DF8044003F0BA
S3150000445CB5FB0D4A536A23F4FF6323F0070353623B
S3150000446C40F2FF7313620120946003F0C1FB074B0B
S3150000447C4FF08042C3F880211A6006B010BD00BF11
S3150000448C1C8A0300A00914000020044000E100E08F
S3150000449C014B9868704700BF00200440114A93688E
S315000044AC516D9269520704D4CA1A032A01D899424B
S315000044BC0DD1C21A022A98BFD81C0A4BB0F1FF3F85
S315000044CC38BF013858655A6A42F004025A62064AE5
S315000044DC137833B103490B6D43F002030B650023CC
S315000044EC1370704700200440692100208207054A9A
S315000044FC00F00103516A48BF43F004030B435362B7
S3150000450C704700BF00200440820700F0010309D564
S3150000451C074A0121117007490A6D22F0030243F084
S3150000452C04030A6503494A6A22EA03034B6270478D
S3150000453C6921002000200440064B01289B6904D009
S3150000454C022805D1C3F38000704703F001007047C1
S3150000455C002070470020044010B502F0AEFA094A5C
S3150000456C93690446590703F0010003F0070348BF9B
S3150000457C40F002001362FFF7B7FE2046BDE810407C
S3150000458C02F0A1BA00200440014801F08DBF00BF23
S3150000459CA0091400044B4FF04042DA621A6B22F069
S315000045AC40421A63704700BF00300E40F0B52D4CE8
S315000045BC2D4A236800210846156845B11D68002D53
S315000045CC41D01D791679AE4284BF134601210130C4
S315000045DC052802F10802EFD101B123602348244AD1
S315000045EC036800210D46166846B11E68002E2DD0B4
S315000045FC1E791779B7423CBF134601210135052DAB
S3150000460C02F10802EFD101B103602168194B0A6867
S3150000461CFAB1DA69097922F0FF020A43DA611A6BF8
S3150000462C42F0804201681A630A68124BAAB1DA6931
S3150000463C097922F47F4242EA0122DA611A6B42F0CE
S3150000464C00421A63F0BD13460121C0E7134601214F
S3150000465CD4E71A6B22F08042E4E71A6B22F0004290
S3150000466CEFE700BF502C002008310020B02D0020B1
S3150000467C3031002000300E4008B5184B1848012286
S3150000468C1A70002128222DF04BF9282215480021FA
S3150000469C2DF046F9144A154B1360154A1360154A4A
S315000046ACD2F8B030D2F80421C3F30743FF2B02D063
S315000046BCD2B2FF2A01D19022192303EB830302EB1A
S315000046CCD3030D4A1360FFF765FF0C4B0122C3F8A9
S315000046DC80211A60FFF76AFF002008BDC83700204A
S315000046EC0831002030310020502C0020242E0020D0
S315000046FCB02D00200081E00F7C26002000E100E0B8
S3150000470C08B502F0A7FE9FED137A07EE900AF4EEB9
S3150000471CC77AF1EE10FA19D49FED0F7AF4EE477AB8
S3150000472CF1EE10FAC8BFF0EE477A17EE900A2CF0AD
S3150000473C85FE0A4B00222CF023FD094B00222CF09F
S3150000474C1FFD2CF0D3FE803840B208BDF0EE477A40
S3150000475CEBE700BF000000C30000FE420000E03F94
S3150000476C00006040144A38B5136B526A134012D5D8
S3150000477C124B1B681D6835B100241C605C60FFF78A
S3150000478CBFFF2146A8470C4B4FF00042DA62BDE84A
S3150000479C3840FFF70BBF5B00F9D5094B1B681C684B
S315000047AC34B100221A605A60FFF7AAFF0121A04714
S315000047BC014B4FF08042E9E700300E40B02D00204F
S315000047CC502C0020FFF7CEBF38B141B1013AB2F5FB
S315000047DC006F044838BF00207047034870470148F3
S315000047EC704700BF037000F0027000F038B5044645
S315000047FC0D4602F062F9A3889BB223B92B6002F036
S3150000480C62F9064838BD638814229BB202FB034446
S3150000481C08342C6002F057F90020F3E70B7000F017
S3150000482CF8B5044616460F4602F047F9A388E28807
S3150000483C9BB29A42054605D80023336002F043F931
S3150000484C1748F8BD238814229BB202FB0343083396
S3150000485C3A4607F1100C174603CF674518605960A6
S3150000486C3A4603F10803F6D13868186023881422F7
S3150000487C9BB202FB0343083333602388E2889BB266
S3150000488C0133B3FBF2F102FB11339BB22380A388F5
S3150000489C01339BB22846A38002F015F90020D0E71D
S315000048AC0A7000F010B50346006893F83230012BFD
S315000048BC0CD103F01BF8044630B1FFF79FFC242300
S315000048CC5843B0FBF4F40134204610BD03F0D4FA7F
S315000048DCF1E7000090F83130022B0BD1437E3022E9
S315000048EC5343054A1A44437F03EBC2039B001868E3
S315000048FCC0B27047002070471CA0100213B51D4AA9
S3150000490C002352F8044B617F81420ED00133042BF5
S3150000491CF7D102B010BD0028FBD19DF80730002B53
S3150000492CF7D06068FFF724F9F3E794F83130022BDF
S3150000493CEFD12046FFF7CEFF637D2075022BE8D121
S3150000494C94F82E3003F0FF02002BE2D160688DF84C
S3150000495C07200DF10701FFF76BF9237D1BB194F8C6
S3150000496C2F30002BD7D00023606884F82F30FFF748
S3150000497C1FF9CEE76031002090F8323053B9036846
S3150000498C0422DA601A699007FCD55A6F42F00202CB
S3150000499C5A677047012B0CD103685A6C9107FCD4EB
S315000049AC04225A609A689207FCD55A6D42F00202AC
S315000049BC5A65704790F8323053B903680122DA60B1
S315000049CC1A69D007FCD55A6F42F001025A67704734
S315000049DC012B0CD103685A6C9107FCD401225A6046
S315000049EC9A68D207FCD55A6D42F001025A65704797
S315000049FC90F832303BB903685A6F22F001025A67BD
S31500004A0C0222DA607047012B09D103685A6C9207AF
S31500004A1CFCD45A6D22F001025A6502225A60704784
S31500004A2C1049114A0B7830B52BB9C2E90033C2E9EB
S31500004A3C023301230B700C4C0023214651F8045B06
S31500004A4C854208D00133042BF8D1002154F8043BDD
S31500004A5C1BB942F82100002003E001310429F5D1ED
S31500004A6C024830BD813A002060310020027000F00F
S31500004A7C10B50446FFF712F80021201DFEF796FF2D
S31500004A8C014620B904F10800FEF790FF00B1014879
S31500004A9C10BD00BF0E7000F070B5054602F00DF8A3
S31500004AAC6C6B013C06466C634CB901F0F7FF214672
S31500004ABC0546012004F062F9284601F0F3FF304662
S31500004ACCBDE8704001F0FFBF13B591F832200B68BA
S31500004ADC012A0C460BD19B6813F0080F20460AD00E
S31500004AECFFF7DAFF022384F8383002B010BD1B69D9
S31500004AFC13F0200FF2E7FFF7D5FE0023CDE90033C4
S31500004B0C0146034A234604F13C00FFF7BDFAECE7E5
S31500004B1CD54A000070B5044601F0CFFF636B05461D
S31500004B2C4BB901F0BBFF01210646084604F026F9F5
S31500004B3C304601F0B7FF636B013363632846BDE86B
S31500004B4C704001F0C0BF00007FB5012380F82C3007
S31500004B5C90F8323093B90C4A036803920022049001
S31500004B6C02924A680192012200920A6801698068E1
S31500004B7C1C33FEF7E3FF07B05DF804FB012BEAD00C
S31500004B8C002380F82C30F6E7F15C00002DE9F041AB
S31500004B9C012380F82D3090F8323088B004460E464A
S31500004BAC6BBB0568343501F088FF04F13C080746F9
S31500004BBC0DF11F014046FFF74BFA40B99DF81F3027
S31500004BCC2BB14046FFF702FA2046FFF765FF384641
S31500004BDC012701F078FF204684F83870FFF79AFF1A
S31500004BEC0E4B0393002302937368E1686068049488
S31500004BFCCDE900732A463368FEF786FF0BE0012BDE
S31500004C0C06D105682B6843F4005345F8283BCAE7E0
S31500004C1C002380F82D3008B0BDE8F081754C0000FB
S31500004C2C38B504460D4601F048FFA3889BB223B95C
S31500004C3C2B60BDE8384001F046BF638814229BB256
S31500004C4C02FB034308332B606388E2889BB2013373
S31500004C5CB3FBF2F102FB11339BB26380A388013BD9
S31500004C6C9BB2A380E5E70000F0B585B0906A03A976
S31500004C7C1446FFF7BBFD06462046FFF713FE00253C
S31500004C8C01462346CDE900551B4A04F13C00FFF7CB
S31500004C9CFBF91A4B9E421FD0039B1D619D6001F0D0
S31500004CAC0CFF039AD768064627B1D2E9002329469A
S31500004CBC2046B847A06A03A9FFF7B2FFA06A83880B
S31500004CCC9BB263B103A9FFF791FD03992046FFF749
S31500004CDC5DFF304601F0F7FE012005B0F0BD84F80B
S31500004CEC2D3094F83230012B01BF2268136823F45F
S31500004CFC00531360EDE700BFD54A00000B7000F0BF
S31500004D0C1FB504460B46C07DE17E002B33D0012334
S31500004D1C042202F035FC0123217F207E022202F0C0
S31500004D2C2FFC94F83130022B16D1617F607E002364
S31500004D3C012202F025FC00230422A17FA07E02F0B2
S31500004D4C1FFC0123627F0193607E0093114602F0E3
S31500004D5CD1FB002004B010BD032BFAD10023012295
S31500004D6C617F607E02F00CFC00230422A17FA07EF2
S31500004D7C02F006FCEDE71A46039302F001FC039BD6
S31500004D8C217F207E1A4602F0FBFB94F83120039B10
S31500004D9C022A0FD11A46617F607E02F0F1FB039B5B
S31500004DACA17FA07E1A4602F0EBFB039B0193627F68
S31500004DBC0123C9E7032ACCD11A46617F607E03938F
S31500004DCC02F0DEFB039B1A46D0E790F8323013B99B
S31500004DDC036818697047012B1CD103689B6803F0A4
S31500004DEC0200DA0748BF40F00100590748BF40F0FF
S31500004DFC08001A0748BF40F02000D90648BF40F00B
S31500004E0C40009A0648BF40F080005B0603D540F48C
S31500004E1C00507047002070472DE9F3410D460446BB
S31500004E2C00287FD001F049FE012D064641D1A36A28
S31500004E3C9B889BB2002B43D06068FEF7D9FE0023FB
S31500004E4CA06A84F82D3083889BB273B101A9FFF751
S31500004E5CCDFC01996068394F0831FEF711FF019BB3
S31500004E6C1F61A06A83889BB283BB2046FFF7ADFF08
S31500004E7C8304FAD5023D012D10D8A068FEF7B8FEC2
S31500004E8C0023606A84F82C3083889BB26BBB94F841
S31500004E9C3130032B02D02046FFF7AAFD636B002BA3
S31500004EAC02DD2046FFF7F8FD304601F00CFE00202F
S31500004EBC09E0022D38D1636A9B889BB2002BDCD1AA
S31500004ECC01F001FE1E4802B0BDE8F08101A9FFF712
S31500004EDCA7FE019BD3F80C80B8F1000FC1D09B68DC
S31500004EEC002239462046C047BBE76946FFF77EFCE1
S31500004EFC0099A068114D0831FEF7C2FE009B1D619A
S31500004F0C606A83889BB2002BC1D06946FFF788FE86
S31500004F1C009BDF68002FF3D09B68002229462046B1
S31500004F2CB847EDE70748CEE7032DA3D1A36A9B88C4
S31500004F3C9BB2002B80D1636A7AE700BF097000F040
S31500004F4C087000F0027000F0436A9888C0B270478F
S31500004F5C2DE9F3410546406A84889846A4B200239D
S31500004F6CCDE900330E4617463CB16946FFF73EFCC9
S31500004F7C01A90446A868FEF783FE009B73B16CB9C1
S31500004F8C5A6801991B68521A3A60C8F800103360C7
S31500004F9C2846FFF71AFF02B0BDE8F0810023C8F8D7
S31500004FAC00303B60F3E7836A9888C0B270472DE9FE
S31500004FBCF3410546806A84889846A4B20023CDE95D
S31500004FCC00330E4617463CB16946FFF70FFC01A9A4
S31500004FDC04466868FEF754FE009B73B16CB95A68B8
S31500004FEC01991B68521A3A60C8F8001033602846BB
S31500004FFCFFF7EBFE02B0BDE8F0810023C8F80030E5
S3150000500C3B60F3E7007D70472DE9F041044690467E
S3150000501CFFF7DAFB0F46054600285CD1092001F0A4
S3150000502C71FD0646A26A93889BB213B194F82E3092
S3150000503C33B394F8323043BB23681E6906F002067C
S3150000504C1EB92046FFF798FC0026012384F8303061
S3150000505C94F832301BBBB844474520681AD1036913
S3150000506C9A06FCD5002E36D194F8323033BB236821
S3150000507C5A6F22F002025A670822DA6035462AE095
S3150000508C002ED0D0FEF71EFECCE7012BD9D123681B
S3150000509C9E68D3E717F8011B02F078FFDCE7012BBB
S315000050ACE0D1B844B845206803D183681B07FCD50A
S315000050BCD8E717F8011B02F04CFCF3E7012BDDD106
S315000050CC23685D6C15F00205FBD15A6D22F00202C5
S315000050DC5A6508225A602846BDE8F08110B5044688
S315000050EC80B190F82E302BB9FFF7F4FB10B960683D
S315000050FCFEF73EFD94F82E300133DBB284F82E30E9
S3150000510C002010BD0048FCE7027000F010B5044604
S3150000511CA0B190F82E309BB190F82E30012B05D112
S3150000512CFFF7D8FB10B96068FEF742FD94F82E30F5
S3150000513C013BDBB284F82E30002010BD0148FCE7A1
S3150000514C0148FAE7027000F0057000F037B590F8E8
S3150000515C3150022D044618D1A37FA17E407D012239
S3150000516C9A4030235943134B0B4410B903F1806317
S3150000517C03E0012805D103F1C0631A60002003B0D7
S3150000518C30BD217D0029F6D1F0E7012DF6D1037D46
S3150000519C73B911238DF80730FFF7A0FF2A460DF1DE
S315000051AC07012046FFF730FF2046FFF7AFFFE5E784
S315000051BC1323EFE70CA00040F0B5094F04460D464B
S315000051CC0FCF89B001AE0FC697E8070086E8070037
S315000051DC002C00F0CE843DB9024E304609B0F0BD2D
S315000051EC2C8A0300037000F05422002120462CF078
S315000051FC97FB2046FFF714FC06460028EDD12B7CC6
S3150000520C84F8313001222B6884F83820B94A23609F
S3150000521C934284F8320040F08E81B74B2362B74B31
S3150000522CE3604FF440232361D5E90623002662622E
S3150000523C16805680968084F82C60A3621E805E8051
S3150000524C9E806B6803936B8984F82D6084F82F60BD
S3150000525CADF81430AB89ADF81230AB7BA8488DF89D
S3150000526C10300121EB7B8DF8163005278DF8117067
S3150000527C00F0CEFFA348012100F0CAFF206A0121ED
S3150000528C00F0C6FF28688DF8046001A902F040FE04
S3150000529CD5F800C06B7ADCF878002A7A20F4F8503E
S315000052AC20F01F00184340EA02200321CCF87800B6
S315000052BC2068CCF87410DFF83CC2604540F05A8187
S315000052CCBA4240F27281901F042840F27081A2F11A
S315000052DC0B00B84240F26D81A2F11100062808D9E4
S315000052ECA2F11801062940F266811F2A14BFFF217C
S315000052FC3946042BE17540F26081591F042940F2AE
S3150000530C5E81A3F10A01052940F25B81A3F110012C
S3150000531C062940F25881A3F11701072940F255815D
S3150000532CB3F11F0118BF4FF0FF31C9B22176002A25
S3150000533C58D0012A56D0022A54D0032A52D0042A15
S3150000534C50D0052A4ED0062A00F04981072A00F0D3
S3150000535C4881082A00F04781092A00F046810A2A6A
S3150000536C00F045810B2A00F050810C2A00F02F81A9
S3150000537C0D2A00F02E810E2A00F02D810F2A00F046
S3150000538C2C81102A00F02B81112A00F02481122A7C
S3150000539C00F02381132A00F02281142A00F02181C7
S315000053AC152A00F02081162A00F01F81172A00F01A
S315000053BC1E81182A00F01D81192A00F01C811A2A58
S315000053CC00F01B811B2A00F01A811C2A00F019819F
S315000053DC1D2A00F018811E2A00F017811F2A0CBF07
S315000053EC0722FF22E276002B00F0AA83012B00F0A5
S315000053FCA983022B00F09283032B00F09183042BDC
S3150000540C00F09083052B00F08F83062B00F08E8323
S3150000541C072B00F08D83082B00F08C83092B00F0F2
S3150000542C8B830A2B00F070830B2B00F06F830C2BF5
S3150000543C00F06E830D2B00F06D830E2B00F06C8349
S3150000544C0F2B00F07183102B00F06483112B00F0EE
S3150000545C6383122B00F06883132B00F06783142BE5
S3150000546C00F06683152B00F06583162B00F0648321
S3150000547C172B00F06383182B00F06283192B00F0B6
S3150000548C61831A2B00F04A831B2B00F049831C2BDB
S3150000549C00F048831D2B00F037831E2B00F036835B
S315000054AC1F3B18BF4FF0FF33DBB223776B7C637661
S315000054BCAB7C6377EB7CA3762B7DA377012120460F
S315000054CCFFF71EFC064600287FF487AE01F0F5FABE
S315000054DC2B7C032B074640F03B832B682A8CDA6720
S315000054EC5A6E42F004025A665A6F42F030025A67FC
S315000054FC0AE000BF000001400042040001000C005D
S3150000550C4041050000350A0028684FF0FF338364DC
S3150000551C2B7C032B0CBF0521042102F0BFFC2B684E
S3150000552C4FF44062DA602046FFF7A2FA0646384688
S3150000553C01F0C9FA51E6364A934206D1354B23623D
S3150000554C354BE3604FF450236DE6344A934206D153
S3150000555C334B2362334BE3604FF4602363E6324AEA
S3150000556C93427FF439AE314B2362314BE3604FF4F7
S3150000557C702358E6DFF898C060455BD1052A14D92C
S3150000558C901F042813D9A2F10B00052811D9A2F1FA
S3150000559C110006287FF6ADAEA2F1180106290AD92C
S315000055AC1F2A14BFFF210521A3E63146A1E60121DE
S315000055BC9FE602219DE639469BE60021B6E60121CF
S315000055CCB4E60221B2E60321B0E60521AEE60722D7
S315000055DC08E7082206E7092204E70A2202E70B225B
S315000055EC00E70C22FEE60D22FCE60E22FAE60F225E
S315000055FCF8E60022F6E60122F4E60222F2E603229F
S3150000560CF0E60422EEE60522ECE60622EAE600BF08
S3150000561C000401400052040001000D000008014086
S3150000562C0062040001000E00000C01400072040030
S3150000563C01000F00DFF814C5604540F03181042AE3
